{
  "contractName": "Moldex",
  "abi": [
    {
      "constant": true,
      "inputs": [
        {
          "name": "",
          "type": "address"
        }
      ],
      "name": "lastActiveTransaction",
      "outputs": [
        {
          "name": "",
          "type": "uint256"
        }
      ],
      "payable": false,
      "stateMutability": "view",
      "type": "function"
    },
    {
      "constant": true,
      "inputs": [
        {
          "name": "",
          "type": "bytes32"
        }
      ],
      "name": "withdrawn",
      "outputs": [
        {
          "name": "",
          "type": "bool"
        }
      ],
      "payable": false,
      "stateMutability": "view",
      "type": "function"
    },
    {
      "constant": true,
      "inputs": [
        {
          "name": "",
          "type": "address"
        }
      ],
      "name": "admins",
      "outputs": [
        {
          "name": "",
          "type": "bool"
        }
      ],
      "payable": false,
      "stateMutability": "view",
      "type": "function"
    },
    {
      "constant": true,
      "inputs": [],
      "name": "feeAccount",
      "outputs": [
        {
          "name": "",
          "type": "address"
        }
      ],
      "payable": false,
      "stateMutability": "view",
      "type": "function"
    },
    {
      "constant": true,
      "inputs": [
        {
          "name": "",
          "type": "address"
        },
        {
          "name": "",
          "type": "uint256"
        },
        {
          "name": "",
          "type": "address"
        }
      ],
      "name": "ERC1155Tokens",
      "outputs": [
        {
          "name": "",
          "type": "uint256"
        }
      ],
      "payable": false,
      "stateMutability": "view",
      "type": "function"
    },
    {
      "constant": true,
      "inputs": [],
      "name": "owner",
      "outputs": [
        {
          "name": "",
          "type": "address"
        }
      ],
      "payable": false,
      "stateMutability": "view",
      "type": "function"
    },
    {
      "constant": true,
      "inputs": [
        {
          "name": "",
          "type": "bytes32"
        }
      ],
      "name": "traded",
      "outputs": [
        {
          "name": "",
          "type": "bool"
        }
      ],
      "payable": false,
      "stateMutability": "view",
      "type": "function"
    },
    {
      "constant": true,
      "inputs": [],
      "name": "inactivityReleasePeriod",
      "outputs": [
        {
          "name": "",
          "type": "uint256"
        }
      ],
      "payable": false,
      "stateMutability": "view",
      "type": "function"
    },
    {
      "constant": true,
      "inputs": [
        {
          "name": "",
          "type": "bytes32"
        }
      ],
      "name": "orderFills",
      "outputs": [
        {
          "name": "",
          "type": "uint256"
        }
      ],
      "payable": false,
      "stateMutability": "view",
      "type": "function"
    },
    {
      "inputs": [
        {
          "name": "_feeAccount",
          "type": "address"
        }
      ],
      "payable": false,
      "stateMutability": "nonpayable",
      "type": "constructor"
    },
    {
      "payable": true,
      "stateMutability": "payable",
      "type": "fallback"
    },
    {
      "anonymous": false,
      "inputs": [
        {
          "indexed": true,
          "name": "previousOwner",
          "type": "address"
        },
        {
          "indexed": true,
          "name": "newOwner",
          "type": "address"
        }
      ],
      "name": "SetOwner",
      "type": "event"
    },
    {
      "anonymous": false,
      "inputs": [
        {
          "indexed": false,
          "name": "tokenAddress",
          "type": "address"
        },
        {
          "indexed": false,
          "name": "tokenId",
          "type": "uint256"
        },
        {
          "indexed": false,
          "name": "user",
          "type": "address"
        },
        {
          "indexed": false,
          "name": "amount",
          "type": "uint256"
        },
        {
          "indexed": false,
          "name": "balance",
          "type": "uint256"
        }
      ],
      "name": "Deposit",
      "type": "event"
    },
    {
      "anonymous": false,
      "inputs": [
        {
          "indexed": false,
          "name": "tokenAddress",
          "type": "address"
        },
        {
          "indexed": false,
          "name": "tokenId",
          "type": "uint256"
        },
        {
          "indexed": false,
          "name": "user",
          "type": "address"
        },
        {
          "indexed": false,
          "name": "amount",
          "type": "uint256"
        }
      ],
      "name": "Withdraw",
      "type": "event"
    },
    {
      "constant": false,
      "inputs": [
        {
          "name": "_newOwner",
          "type": "address"
        }
      ],
      "name": "setOwner",
      "outputs": [],
      "payable": false,
      "stateMutability": "nonpayable",
      "type": "function"
    },
    {
      "constant": false,
      "inputs": [
        {
          "name": "admin",
          "type": "address"
        },
        {
          "name": "isAdmin",
          "type": "bool"
        }
      ],
      "name": "setAdmin",
      "outputs": [],
      "payable": false,
      "stateMutability": "nonpayable",
      "type": "function"
    },
    {
      "constant": false,
      "inputs": [
        {
          "name": "expiry",
          "type": "uint256"
        }
      ],
      "name": "setInactivityReleasePeriod",
      "outputs": [
        {
          "name": "success",
          "type": "bool"
        }
      ],
      "payable": false,
      "stateMutability": "nonpayable",
      "type": "function"
    },
    {
      "constant": false,
      "inputs": [
        {
          "name": "_tokenAddresses",
          "type": "address[]"
        },
        {
          "name": "_tokenIds",
          "type": "uint256[]"
        },
        {
          "name": "_amounts",
          "type": "uint256[]"
        }
      ],
      "name": "deposit",
      "outputs": [],
      "payable": false,
      "stateMutability": "nonpayable",
      "type": "function"
    },
    {
      "constant": false,
      "inputs": [],
      "name": "depositETH",
      "outputs": [],
      "payable": true,
      "stateMutability": "payable",
      "type": "function"
    },
    {
      "constant": false,
      "inputs": [
        {
          "name": "_tokenAddresses",
          "type": "address[]"
        },
        {
          "name": "_tokenIds",
          "type": "uint256[]"
        },
        {
          "name": "_amounts",
          "type": "uint256[]"
        }
      ],
      "name": "withdraw",
      "outputs": [
        {
          "name": "",
          "type": "bool"
        }
      ],
      "payable": false,
      "stateMutability": "nonpayable",
      "type": "function"
    },
    {
      "constant": false,
      "inputs": [
        {
          "name": "addresses",
          "type": "address[2]"
        },
        {
          "name": "tradeValues",
          "type": "uint256[4]"
        },
        {
          "name": "v",
          "type": "uint8"
        },
        {
          "name": "r",
          "type": "bytes32"
        },
        {
          "name": "s",
          "type": "bytes32"
        }
      ],
      "name": "adminWithdrawERC1155",
      "outputs": [
        {
          "name": "",
          "type": "bool"
        }
      ],
      "payable": false,
      "stateMutability": "nonpayable",
      "type": "function"
    },
    {
      "constant": false,
      "inputs": [
        {
          "name": "tradeValues",
          "type": "uint256[10]"
        },
        {
          "name": "tradeAddresses",
          "type": "address[4]"
        },
        {
          "name": "v",
          "type": "uint8[2]"
        },
        {
          "name": "rs",
          "type": "bytes32[4]"
        }
      ],
      "name": "trade",
      "outputs": [
        {
          "name": "",
          "type": "bool"
        }
      ],
      "payable": false,
      "stateMutability": "nonpayable",
      "type": "function"
    }
  ],
  "bytecode": "0x608060405234801561001057600080fd5b5060405160208061200b833981016040908152905160008054600160a060020a031990811633908117835582526004602052928120805460ff1916600117905560028054600160a060020a039093169290931691909117909155600755611f8f8061007c6000396000f3006080604052600436106100d75763ffffffff60e060020a60003504166313af40358114610180578063254dcfe2146101a3578063288253a8146101d65780633823d66c1461020a578063429b62e5146102225780634b0bddd214610243578063656e87291461026957806365e17c9d146102a15780636b7c9822146102d257806374940720146102fd5780638da5cb5b14610323578063b8eabab014610338578063d581332314610370578063dd93c74a14610388578063f31174ee146103a0578063f6326fb3146103b5578063f7213db6146103bd575b336000908152600080516020611f448339815191526020526040902054610104903463ffffffff6103d516565b336000818152600080516020611f4483398151915260208181526040808420958655600582528084204390559181529354815183815294850192909252838101929092523460608401526080830152517f6a7b4b4de67d42edc5a43dd8bb598338e29e72e277cef089c6ad4ffe3aa610609181900360a00190a1005b34801561018c57600080fd5b506101a1600160a060020a03600435166103f2565b005b3480156101af57600080fd5b506101c4600160a060020a036004351661046e565b60408051918252519081900360200190f35b3480156101e257600080fd5b506101f660046101446101c4610204610480565b604080519115158252519081900360200190f35b34801561021657600080fd5b506101f6600435610ef0565b34801561022e57600080fd5b506101f6600160a060020a0360043516610f05565b34801561024f57600080fd5b506101a1600160a060020a03600435166024351515610f1a565b34801561027557600080fd5b506101a16024600480358281019290820135918135808301929082013591604435918201910135610f59565b3480156102ad57600080fd5b506102b66112bc565b60408051600160a060020a039092168252519081900360200190f35b3480156102de57600080fd5b506101c4600160a060020a0360043581169060243590604435166112cb565b34801561030957600080fd5b506101f66004604460ff60c4351660e435610104356112ee565b34801561032f57600080fd5b506102b66119bb565b34801561034457600080fd5b506101f660246004803582810192908201359181358083019290820135916044359182019101356119ca565b34801561037c57600080fd5b506101f6600435611dd9565b34801561039457600080fd5b506101f6600435611dee565b3480156103ac57600080fd5b506101c4611e3d565b6101a1611e43565b3480156103c957600080fd5b506101c4600435611eec565b6000828201838110156103e757600080fd5b8091505b5092915050565b600054600160a060020a0316331461040657fe5b60008054604051600160a060020a03808516939216917fcbf985117192c8f614a58aaf97226bb80a754772f5f6edf06f87c675f2e6c66391a36000805473ffffffffffffffffffffffffffffffffffffffff1916600160a060020a0392909216919091179055565b60056020526000908152604090205481565b6000805481908190600160a060020a031633148015906104b057503360009081526004602052604090205460ff16155b156104ba57600080fd5b604086810135600160a060020a0316600090815260016020522054606088013510156104e557600080fd5b604080516c010000000000000000000000003081026020838101919091528935600160a060020a03908116830260348501526101008c013560488501528b356068850152818b01358116830260888501526101208c0135609c850152818c013560bc850152848c013560dc85015260608c013560fc850152848b01351690910261011c830152825161011081840301815261013090920192839052815191929182918401908083835b602083106105ad5780518252601f19909201916020918201910161058e565b5181516020939093036101000a600019018019909116921691909117905260405192018290039091209450889250600291506105e69050565b6020020135600160a060020a0316600160a060020a031660018360405160200180807f19457468657265756d205369676e6564204d6573736167653a0a333200000000815250601c0182600019166000191681526020019150506040516020818303038152906040526040518082805190602001908083835b6020831061067e5780518252601f19909201916020918201910161065f565b51815160209384036101000a6000190180199092169116179052604080519490920184900384206000808652858301808552919091528d3560ff16858401528c3560608601528c8201356080860152915160a08086019750919550601f19810194819003909101925090865af11580156106fc573d6000803e3d6000fd5b50505060206040510351600160a060020a031614151561071b57600080fd5b60408051602081810185905260808a0135828401526c0100000000000000000000000060608a810135600160a060020a0316919091029083015260a08a013560748084019190915283518084039091018152609490920192839052815191929182918401908083835b602083106107a35780518252601f199092019160209182019101610784565b5181516020939093036101000a600019018019909116921691909117905260405192018290039091209350889250600391506107dc9050565b6020020135600160a060020a0316600160a060020a031660018260405160200180807f19457468657265756d205369676e6564204d6573736167653a0a333200000000815250601c0182600019166000191681526020019150506040516020818303038152906040526040518082805190602001908083835b602083106108745780518252601f199092019160209182019101610855565b51815160209384036101000a6000190180199092169116179052604080519490920184900384206000808652858301808552919091528d82013560ff16858401528c8301356060808701919091528d01356080860152915160a08086019750919550601f19810194819003909101925090865af11580156108f9573d6000803e3d6000fd5b50505060206040510351600160a060020a031614151561091857600080fd5b60008181526008602052604090205460ff161561093457600080fd5b6000818152600860205260409020805460ff1916600117905567016345785d8a00008760066020020135111561096957600080fd5b67016345785d8a000060e0880135111561098257600080fd5b6000828152600660205260409020548735906109a29060808a01356103d5565b11156109ad57600080fd5b600160a060020a038635811660009081526003602090815260408083206101008c01358452825280832060608b013590941683529290522054608088013511156109f657600080fd5b8635610a1560808901358960015b60200201359063ffffffff611efe16565b811515610a1e57fe5b600160a060020a03602089810135821660009081526003825260408082206101208e013583528352808220818d013590941682529290915220549190041115610a6657600080fd5b8535600160a060020a031660009081526003602081815260408084206101008c013585529091528220610ad99260808b0135928a905b6020020135600160a060020a0316600160a060020a0316600160a060020a0316815260200190815260200160002054611f2c90919063ffffffff16565b600160a060020a038735811660009081526003602090815260408083206101008d01358452825280832060608c013590941683529290522055610ba9670de0b6b3a7640000610b3060c08a013582038a6004610a04565b811515610b3957fe5b8835600160a060020a031660009081526003602090815260408083206101008e0135845290915281209290910491908960025b6020020135600160a060020a0316600160a060020a0316600160a060020a03168152602001908152602001600020546103d590919063ffffffff16565b600160a060020a038735811660009081526003602090815260408083206101008d013584528252808320818c013590941683529290522055610c66670de0b6b3a7640000610bfd60c08a01358a6004610a04565b811515610c0657fe5b600160a060020a0389351660009081526003602052604081209290910491908a60085b6020908102919091013582528181019290925260409081016000908120600254600160a060020a031682529092529020549063ffffffff6103d516565b600160a060020a038735811660009081526003602090815260408083206101008d01358452825280832060025490941683529290522055610cf48735610cb260808a01358a6001610a04565b811515610cbb57fe5b602089810135600160a060020a031660009081526003825260408082206101208e01358352909252908120929091049190896002610a9c565b600160a060020a03602088810135821660009081526003825260408082206101208d013583528352808220818c01359094168252929091522055610daf670de0b6b3a76400008835610d6260808b0135610d5660e08d013585038d6001610a04565b9063ffffffff611efe16565b811515610d6b57fe5b04811515610d7557fe5b602089810135600160a060020a03166000908152600380835260408083206101208f01358452909352918120939092049291908a90610b6c565b600160a060020a03602088810135821660009081526003825260408082206101208d01358352835280822060608c01359094168252929091522055610e4e670de0b6b3a76400008835610e1060808b0135610d5660e08d01358d6001610a04565b811515610e1957fe5b04811515610e2357fe5b602089810135600160a060020a031660009081526003909152604081209290910491908a6009610c29565b600160a060020a03602088810135821660009081526003825260408082206101208d01358352835280822060025490941682529282528281209390935584835260069052902054610ea39060808901356103d5565b600092835260066020908152604080852092909255600160a060020a0388830135811685526005909152818420439081905560609098013516835290912094909455506001949350505050565b60096020526000908152604090205460ff1681565b60046020526000908152604090205460ff1681565b600054600160a060020a03163314610f2e57fe5b600160a060020a03919091166000908152600460205260409020805460ff1916911515919091179055565b6000868682818110610f6757fe5b90506020020135600160a060020a0316600160a060020a031663d54e583a3330888888886040518763ffffffff1660e060020a0281526004018087600160a060020a0316600160a060020a0316815260200186600160a060020a0316600160a060020a03168152602001806020018060200183810383528787828181526020019250602002808284379091018481038352858152602090810191508690860280828437820191505098505050505050505050602060405180830381600087803b15801561103357600080fd5b505af1158015611047573d6000803e3d6000fd5b505050506040513d602081101561105d57600080fd5b5051151561106a57600080fd5b5060005b838110156112b35761111183838381811061108557fe5b90506020020135600360008a8a86818110151561109e57fe5b90506020020135600160a060020a0316600160a060020a0316600160a060020a03168152602001908152602001600020600088888681811015156110de57fe5b6020908102929092013583525081810192909252604090810160009081203382529092529020549063ffffffff6103d516565b6003600089898581811061112157fe5b90506020020135600160a060020a0316600160a060020a0316600160a060020a031681526020019081526020016000206000878785818110151561116157fe5b602090810292909201358352508181019290925260409081016000908120338252835281812093909355600590915290204390557f6a7b4b4de67d42edc5a43dd8bb598338e29e72e277cef089c6ad4ffe3aa610608787838181106111c257fe5b90506020020135600160a060020a031686868481811015156111e057fe5b905060200201353386868681811015156111f657fe5b90506020020135600360008d8d89818110151561120f57fe5b90506020020135600160a060020a0316600160a060020a0316600160a060020a0316815260200190815260200160002060008b8b89818110151561124f57fe5b6020908102929092013583525081810192909252604090810160009081203382528352819020548151600160a060020a03978816815292830195909552929094168483015260608401526080830191909152519081900360a00190a160010161106e565b50505050505050565b600254600160a060020a031681565b600360209081526000938452604080852082529284528284209052825290205481565b6000806000806000806000806060806000809054906101000a9004600160a060020a0316600160a060020a031633600160a060020a03161415801561134357503360009081526004602052604090205460ff16155b1561134d57600080fd5b600160a060020a038f351698508e60016020020135600160a060020a031697508d600060048110151561137c57fe5b602002013596508d6001602002013595508d6002602002013594508d600360200201359350308988888b886040516020018087600160a060020a0316600160a060020a03166c0100000000000000000000000002815260140186600160a060020a0316600160a060020a03166c0100000000000000000000000002815260140185815260200184815260200183600160a060020a0316600160a060020a03166c0100000000000000000000000002815260140182815260200196505050505050506040516020818303038152906040526040518082805190602001908083835b6020831061147b5780518252601f19909201916020918201910161145c565b51815160209384036101000a6000190180199092169116179052604080519290940182900390912060008181526009909252929020549196505060ff161591506114c6905057600080fd5b600083815260096020908152604091829020805460ff1916600190811790915582517f19457468657265756d205369676e6564204d6573736167653a0a33320000000081840152603c80820188905284518083039091018152605c909101938490528051600160a060020a038d169492939192918291908401908083835b602083106115635780518252601f199092019160209182019101611544565b6001836020036101000a03801982511681845116808217855250505050505090500191505060405180910390208f8f8f604051600081526020016040526040518085600019166000191681526020018460ff1660ff1681526020018360001916600019168152602001826000191660001916815260200194505050505060206040516020810390808403906000865af1158015611604573d6000803e3d6000fd5b50505060206040510351600160a060020a031614151561162357600080fd5b66b1a2bc2ec5000085111561163d5766b1a2bc2ec5000094505b600160a060020a03808a1660009081526003602090815260408083208b84528252808320938c168352929052205461167b908763ffffffff611f2c16565b600160a060020a03808b1660009081526003602090815260408083208c84528252808320938d168352929052205561170d670de0b6b3a76400006116c5878963ffffffff611efe16565b8115156116ce57fe5b600160a060020a03808d1660009081526003602090815260408083208e845282528083206002549094168352929052205491900463ffffffff6103d516565b600160a060020a03808b1660009081526003602090815260408083208c8452825280832060025490941683529290522055670de0b6b3a76400006117598682038863ffffffff611efe16565b81151561176257fe5b049550600160a060020a03891615156117aa57604051600160a060020a0389169087156108fc029088906000818181858888f1935050505015156117a557600080fd5b611941565b60408051600180825281830190925290602080830190803883395050604080516001808252818301909252929450905060208083019080388339019050509050868260008151811015156117fa57fe5b60209081029091010152805186908290600090811061181557fe5b906020019060200201818152505088600160a060020a03166309d6b0a38984846040518463ffffffff1660e060020a0281526004018084600160a060020a0316600160a060020a031681526020018060200180602001838103835285818151815260200191508051906020019060200280838360005b838110156118a357818101518382015260200161188b565b50505050905001838103825284818151815260200191508051906020019060200280838360005b838110156118e25781810151838201526020016118ca565b5050505090500195505050505050602060405180830381600087803b15801561190a57600080fd5b505af115801561191e573d6000803e3d6000fd5b505050506040513d602081101561193457600080fd5b5051151561194157600080fd5b600160a060020a038089166000818152600560209081526040918290204390558151938d16845283018a90528281019190915260608201889052517f457f950b75085c30ff780acd57bde642ff1316cc4aad9f286af2c1ffc4163a789181900360800190a15060019e9d5050505050505050505050505050565b600054600160a060020a031681565b60075433600090815260056020526040812054909182916119f290439063ffffffff611f2c16565b10156119fd57600080fd5b5060005b84811015611dcb57838382818110611a1557fe5b90506020020135600360008a8a858181101515611a2e57fe5b90506020020135600160a060020a0316600160a060020a0316600160a060020a0316815260200190815260200160002060008888858181101515611a6e57fe5b905060200201358152602001908152602001600020600033600160a060020a0316600160a060020a03168152602001908152602001600020541015611ab257600080fd5b611b4d848483818110611ac157fe5b90506020020135600360008b8b868181101515611ada57fe5b90506020020135600160a060020a0316600160a060020a0316600160a060020a0316815260200190815260200160002060008989868181101515611b1a57fe5b6020908102929092013583525081810192909252604090810160009081203382529092529020549063ffffffff611f2c16565b600360008a8a85818110611b5d57fe5b90506020020135600160a060020a0316600160a060020a0316600160a060020a0316815260200190815260200160002060008888858181101515611b9d57fe5b602090810292909201358352508181019290925260409081016000908120338252909252812091909155888883818110611bd357fe5b90506020020135600160a060020a0316600160a060020a03161415611c3357336108fc858584818110611c0257fe5b905060200201359081150290604051600060405180830381858888f193505050501515611c2e57600080fd5b611d28565b878782818110611c3f57fe5b90506020020135600160a060020a0316600160a060020a03166309d6b0a333888888886040518663ffffffff1660e060020a0281526004018086600160a060020a0316600160a060020a031681526020018060200180602001838103835287878281815260200192506020028082843790910184810383528581526020908101915086908602808284378201915050975050505050505050602060405180830381600087803b158015611cf157600080fd5b505af1158015611d05573d6000803e3d6000fd5b505050506040513d6020811015611d1b57600080fd5b50511515611d2857600080fd5b7f457f950b75085c30ff780acd57bde642ff1316cc4aad9f286af2c1ffc4163a78888883818110611d5557fe5b90506020020135600160a060020a03168787848181101515611d7357fe5b90506020020135338787868181101515611d8957fe5b60408051600160a060020a03978816815260208181019790975294909616848701529390930201356060820152915191829003608001919050a1600101611a01565b506001979650505050505050565b60086020526000908152604090205460ff1681565b60008054600160a060020a03163314801590611e1a57503360009081526004602052604090205460ff16155b15611e2457600080fd5b620f4240821115611e3457600080fd5b50600755600190565b60075481565b336000908152600080516020611f448339815191526020526040902054611e70903463ffffffff6103d516565b336000818152600080516020611f4483398151915260208181526040808420958655600582528084204390559181529354815183815294850192909252838101929092523460608401526080830152517f6a7b4b4de67d42edc5a43dd8bb598338e29e72e277cef089c6ad4ffe3aa610609181900360a00190a1565b60066020526000908152604090205481565b600080831515611f1157600091506103eb565b50828202828482811515611f2157fe5b04146103e757600080fd5b60008083831115611f3c57600080fd5b5050900390560084fa35e963a209ed7b6693816f0819bcb70c934337c6902235d48a9c59ebe6eba165627a7a723058202e1e7984591a2d920c72ff02227f6682c2f37b47f8913903e7d55c6c8083f6f00029",
  "source": "pragma solidity ^0.4.24;\nimport \"./SafeMath.sol\";\n\n/*\n\n\n1. ERC1155 Token Standard\n2. ERC1155 Token\n3. ERC1155 Token\n4. ERC1155 Token\n5. ERC1155 TokenFee(Admin)\n6. Contract Owner\n7. Contract Admin User \n\n*/\n\ncontract Token {\n    function approve(address _spender, uint256[] _ids, uint256[] _currentValues, uint256[] _values) external returns(bool);\n    function balanceOf(uint256 _id, address _owner) external view returns (uint256);\n    function allowance(uint256 _id, address _owner, address _spender) external view returns (uint256);\n    function transferFrom(address _from, address _to, uint256[] _ids, uint256[] _values) external returns (bool);\n    function transfer(address _to, uint256[] _ids, uint256[] _values) external returns (bool);\n    function name(uint256 _id) external view returns (string);\n    function symbol(uint256 _id) external view returns (string);\n    function uri(uint256 _id) external view returns (string);\n    function totalSupply(uint256 _typeId) external view returns (uint256);\n}\n\ncontract Moldex {\n    using SafeMath for uint256;\n\n    //owner\n    address public owner;\n    // user address -> nonce\n    mapping(address => uint256) invalidOrder;\n    // tradefee\n    address public feeAccount;\n    //1155 token contract address -> type_id -> user address -> deposit balance\n    mapping(address => mapping(uint256 => mapping(address => uint256))) public ERC1155Tokens;\n    // contract admins\n    mapping (address => bool) public admins;\n    // usertransaction block number\n    mapping (address => uint256) public lastActiveTransaction;\n    // order\n    mapping (bytes32 => uint256) public orderFills;\n    // contract  ownertokenbalance\n    uint256 public inactivityReleasePeriod;\n    // trade order\n    mapping (bytes32 => bool) public traded;\n    // withdraws hash -> bool\n    mapping (bytes32 => bool) public withdrawn;\n\n    // set owner event\n    event SetOwner(address indexed previousOwner, address indexed newOwner);\n    event Deposit(address tokenAddress,uint256 tokenId, address user, uint256 amount, uint256 balance);\n    event Withdraw(address tokenAddress,uint256 tokenId, address user, uint256 amount);\n\n\n    // Owner Validation\n    modifier onlyOwner {\n        assert(msg.sender == owner);\n        _;\n    }\n\n    // Admin Validation\n    modifier onlyAdmin {\n        if (msg.sender != owner && !admins[msg.sender]) revert();\n        _;\n    }\n\n    constructor\n    (\n        address _feeAccount\n    )\n    public\n    {\n        owner = msg.sender;\n        admins[msg.sender] = true;\n        feeAccount = _feeAccount;\n        inactivityReleasePeriod = 0;\n    }\n\n    // Set Owner function\n    function setOwner\n    (\n        address _newOwner\n    )\n    external onlyOwner\n    {\n        emit SetOwner(owner, _newOwner);\n        owner = _newOwner;\n    }\n\n    // set admin\n    function setAdmin\n    (\n        address admin,\n        bool isAdmin\n    )\n    external onlyOwner\n    {\n        admins[admin] = isAdmin;\n    }\n\n    /*\n    @param expiry duration to withdraw fees for admin users\n    */\n    function setInactivityReleasePeriod\n    (\n        uint256 expiry\n    )\n    external onlyAdmin returns\n    (bool success)\n    {\n        if (expiry > 1000000) revert();\n        inactivityReleasePeriod = expiry;\n        return true;\n    }\n\n    function deposit\n    (\n        address[] _tokenAddresses,\n        uint256[] _tokenIds,\n        uint256[] _amounts\n    )\n    external\n    {\n        if (!Token(_tokenAddresses[i]).transferFrom(msg.sender, address(this), _tokenIds, _amounts)) revert();\n        for(uint256 i = 0; i < _tokenIds.length; i++) {\n            ERC1155Tokens[_tokenAddresses[i]][_tokenIds[i]][msg.sender] = ERC1155Tokens[_tokenAddresses[i]][_tokenIds[i]][msg.sender].add(_amounts[i]);\n            lastActiveTransaction[msg.sender] = block.number;\n            emit Deposit(_tokenAddresses[i], _tokenIds[i], msg.sender, _amounts[i], ERC1155Tokens[_tokenAddresses[i]][_tokenIds[i]][msg.sender]);\n        }\n    }\n\n    function depositETH()\n    public payable\n    {\n        ERC1155Tokens[address(0)][0][msg.sender] = ERC1155Tokens[address(0)][0][msg.sender].add(msg.value);\n        lastActiveTransaction[msg.sender] = block.number;\n        emit Deposit(address(0), 0, msg.sender, msg.value, ERC1155Tokens[address(0)][0][msg.sender]);\n    }\n\n    // . \n    function withdraw\n    (\n        address[] _tokenAddresses,\n        uint256[] _tokenIds,\n        uint256[] _amounts\n    )\n    external returns (bool)\n    {\n        if (block.number.sub(lastActiveTransaction[msg.sender]) < inactivityReleasePeriod) revert();\n        for(uint256 i=0; i<_tokenIds.length; i++) {\n            if (ERC1155Tokens[_tokenAddresses[i]][_tokenIds[i]][msg.sender] < _amounts[i]) revert();\n            ERC1155Tokens[_tokenAddresses[i]][_tokenIds[i]][msg.sender] = ERC1155Tokens[_tokenAddresses[i]][_tokenIds[i]][msg.sender].sub(_amounts[i]);\n            if (_tokenAddresses[i] == address(0)) {\n                if (!msg.sender.send(_amounts[i])) revert();\n            } else {\n                if (!Token(_tokenAddresses[i]).transfer(msg.sender, _tokenIds, _amounts)) revert();\n            }\n            emit Withdraw(_tokenAddresses[i], _tokenIds[i], msg.sender, _amounts[i]);\n        }\n        return true;\n    }\n\n    // owner admin\n    function adminWithdrawERC1155\n    (\n        address[2] addresses,\n        uint256[4] tradeValues,\n        uint8 v,\n        bytes32 r,\n        bytes32 s\n    )\n    external onlyAdmin returns (bool)\n    {\n        /*\n        addresses[0] contract_address\n        addresses[1] user_address\n\n        tradeValues[0] _tokenId\n        tradeValues[1] _amount\n        tradeValues[2] feeWithdrawal\n        tradeValues[3] nonce\n        */\n        // generate hash\n        address token_contract_address = addresses[0];\n        address user_address = addresses[1];\n        uint256 tokenId = tradeValues[0];\n        uint256 amount = tradeValues[1];\n        uint256 fee = tradeValues[2];\n        uint256 nonce = tradeValues[3];\n        bytes32 hash = keccak256(abi.encodePacked(address(this), token_contract_address, tokenId, amount, user_address, nonce));\n        // check withdrawn\n        require(!withdrawn[hash]);\n        withdrawn[hash] = true;\n        // \n        require(ecrecover(keccak256(abi.encodePacked(\"\\x19Ethereum Signed Message:\\n32\", hash)), v, r, s) == user_address);\n        // max  5%\n        if (fee > 50 finney) fee = 50 finney;\n        // \n        ERC1155Tokens[token_contract_address][tokenId][user_address] = ERC1155Tokens[token_contract_address][tokenId][user_address].sub(amount);\n        // ( / 1 ether)(%) * amount =  * amount / 1 ether\n        ERC1155Tokens[token_contract_address][tokenId][feeAccount] = ERC1155Tokens[token_contract_address][tokenId][feeAccount].add(fee.mul(amount) / 1 ether);\n        // ( (1 ether - ) / 1 ether ) * amount = ((1 ether - ) * amount) / 1 ether\n        amount = (1 ether - fee).mul(amount) / 1 ether;\n        if (token_contract_address == address(0)) {\n            if (!user_address.send(amount)) revert();\n        } else {\n            uint256[] memory tokenIds = new uint256[](1);\n            uint256[] memory values = new uint256[](1);\n            tokenIds[0] = tokenId;\n            values[0] = amount;\n            if (!Token(token_contract_address).transfer(user_address, tokenIds, values)) revert();\n        }\n        lastActiveTransaction[user_address] = block.number;\n        emit Withdraw(token_contract_address, tokenId, user_address, amount);\n        return true;\n    }\n\n    function trade\n    (\n        uint256[10] tradeValues,\n        address[4] tradeAddresses,\n\n        uint8[2] v,\n        bytes32[4] rs\n    )\n    external onlyAdmin\n    returns (bool)\n    {\n        /*\n        tradeValues[0] buyAmount\n        tradeValues[1] sellAmount     amountBuyamountSell amountBuy / amountSell\n        tradeValues[2] expires\n        tradeValues[3] order nonce\n        tradeValues[4] amount //  BuyToken\n        tradeValues[5] trade nonce\n        tradeValues[6] feeMake\n        tradeValues[7] feeTake\n        tradeValues[8] buy token  Id\n        tradeValues[9] sell token  Id\n        */\n\n        /*\n        tradeAddresses[0] tokenBuy\n        tradeAddresses[1] tokenSell\n        tradeAddresses[2] maker\n        tradeAddresses[3] taker\n        */\n\n        /*\n        rs[0] maker r\n        rs[1] maker s\n        rs[2] taker r\n        rs[3] taker s\n        */\n\n        // ordernoncemakercurrent nonce\n        require(invalidOrder[tradeAddresses[2]] <= tradeValues[3]);\n        // orderHash\n        bytes32 orderHash = keccak256(abi.encodePacked(\n        address(this), // dex address\n        tradeAddresses[0], // buy token address\n        tradeValues[8], // buy token Id\n        tradeValues[0], // buy amount\n        tradeAddresses[1], //  sell token address\n        tradeValues[9], // sell token Id\n        tradeValues[1], // sell amount\n        tradeValues[2], // expiry date\n        tradeValues[3], // order nonce\n        tradeAddresses[2] // maker address\n        ));\n        // check maker signature is valid\n        require(ecrecover(keccak256(abi.encodePacked(\"\\x19Ethereum Signed Message:\\n32\", orderHash)), v[0], rs[0], rs[1]) == tradeAddresses[2]);\n        bytes32 tradeHash = keccak256(abi.encodePacked(orderHash, tradeValues[4], tradeAddresses[3], tradeValues[5]));\n        // check trader signature is valid\n        require(ecrecover(keccak256(abi.encodePacked(\"\\x19Ethereum Signed Message:\\n32\", tradeHash)), v[1], rs[2], rs[3]) == tradeAddresses[3]);\n        // check traded\n        require(!traded[tradeHash]);\n        traded[tradeHash] = true;\n        //check feeMake, feeTake are valid. Maximum 10%\n        require(tradeValues[6] <= 100 finney);\n        require(tradeValues[7] <= 100 finney);\n        // orderFills \n        require(orderFills[orderHash].add(tradeValues[4]) <= tradeValues[0]);\n        // (buy token)\n        require(ERC1155Tokens[tradeAddresses[0]][tradeValues[8]][tradeAddresses[3]] >= tradeValues[4]);\n        // maker                                        amountSell * amount / amountBuy\n        require(ERC1155Tokens[tradeAddresses[1]][tradeValues[9]][tradeAddresses[2]] >= tradeValues[1].mul(tradeValues[4]) / tradeValues[0]);\n\n        //  buyToken\n        ERC1155Tokens[tradeAddresses[0]][tradeValues[8]][tradeAddresses[3]] = ERC1155Tokens[tradeAddresses[0]][tradeValues[8]][tradeAddresses[3]].sub(tradeValues[4]);\n        // buyTokenmaker. \n        ERC1155Tokens[tradeAddresses[0]][tradeValues[8]][tradeAddresses[2]] = ERC1155Tokens[tradeAddresses[0]][tradeValues[8]][tradeAddresses[2]].add(tradeValues[4].mul((1 ether) - tradeValues[6]) / (1 ether));\n        // \n        ERC1155Tokens[tradeAddresses[0]][tradeValues[8]][feeAccount] = ERC1155Tokens[tradeAddresses[0]][tradeValues[8]][feeAccount].add(tradeValues[4].mul(tradeValues[6]) / (1 ether));\n        // sellTokenmaker\n        ERC1155Tokens[tradeAddresses[1]][tradeValues[9]][tradeAddresses[2]] = ERC1155Tokens[tradeAddresses[1]][tradeValues[9]][tradeAddresses[2]].sub(tradeValues[1].mul(tradeValues[4]) / tradeValues[0]);\n        // sellTokentaker\n        ERC1155Tokens[tradeAddresses[1]][tradeValues[9]][tradeAddresses[3]] = ERC1155Tokens[tradeAddresses[1]][tradeValues[9]][tradeAddresses[3]].add(tradeValues[1].mul((1 ether) - tradeValues[7]).mul(tradeValues[4]) / tradeValues[0] / (1 ether));\n        // sellTokenfeeAccount. \n        ERC1155Tokens[tradeAddresses[1]][tradeValues[9]][feeAccount] = ERC1155Tokens[tradeAddresses[1]][tradeValues[9]][feeAccount].add(tradeValues[1].mul(tradeValues[7]).mul(tradeValues[4]) / tradeValues[0] / (1 ether));\n        // add amount to orderFills\n        orderFills[orderHash] = orderFills[orderHash].add(tradeValues[4]);\n\n        lastActiveTransaction[tradeAddresses[2]] = block.number;\n        lastActiveTransaction[tradeAddresses[3]] = block.number;\n        return true;\n    }\n\n\n    function() public payable {\n        ERC1155Tokens[address(0)][0][msg.sender] = ERC1155Tokens[address(0)][0][msg.sender].add(msg.value);\n        lastActiveTransaction[msg.sender] = block.number;\n        emit Deposit(address(0), 0, msg.sender, msg.value, ERC1155Tokens[address(0)][0][msg.sender]);\n    }\n\n}\n",
  "sourcePath": "/Users/yamamotojirou/WebstormProjects/moldex/moldex/contracts/contracts/Moldex.sol",
  "compiler": {
    "name": "solc",
    "version": "0.4.24+commit.e67f0147.Emscripten.clang"
  },
  "schemaVersion": "2.0.1",
  "updatedAt": "2018-11-05T03:09:56.326Z"
}